{
  "contractName": "StorageHealthRecords",
  "abi": [
    {
      "anonymous": false,
      "inputs": [
        {
          "indexed": true,
          "internalType": "address",
          "name": "patient",
          "type": "address"
        },
        {
          "indexed": true,
          "internalType": "address",
          "name": "doctor",
          "type": "address"
        },
        {
          "indexed": false,
          "internalType": "bool",
          "name": "canCreate",
          "type": "bool"
        },
        {
          "indexed": false,
          "internalType": "bool",
          "name": "canRead",
          "type": "bool"
        },
        {
          "indexed": false,
          "internalType": "bool",
          "name": "canUpdate",
          "type": "bool"
        },
        {
          "indexed": false,
          "internalType": "bool",
          "name": "canDelete",
          "type": "bool"
        }
      ],
      "name": "AccessApproved",
      "type": "event"
    },
    {
      "anonymous": false,
      "inputs": [
        {
          "indexed": true,
          "internalType": "address",
          "name": "patient",
          "type": "address"
        },
        {
          "indexed": true,
          "internalType": "address",
          "name": "doctor",
          "type": "address"
        }
      ],
      "name": "AccessDenied",
      "type": "event"
    },
    {
      "anonymous": false,
      "inputs": [
        {
          "indexed": true,
          "internalType": "address",
          "name": "patient",
          "type": "address"
        },
        {
          "indexed": true,
          "internalType": "address",
          "name": "doctor",
          "type": "address"
        },
        {
          "indexed": false,
          "internalType": "bool",
          "name": "canCreate",
          "type": "bool"
        },
        {
          "indexed": false,
          "internalType": "bool",
          "name": "canRead",
          "type": "bool"
        },
        {
          "indexed": false,
          "internalType": "bool",
          "name": "canUpdate",
          "type": "bool"
        },
        {
          "indexed": false,
          "internalType": "bool",
          "name": "canDelete",
          "type": "bool"
        }
      ],
      "name": "AccessRequested",
      "type": "event"
    },
    {
      "anonymous": false,
      "inputs": [
        {
          "indexed": true,
          "internalType": "address",
          "name": "doctor",
          "type": "address"
        }
      ],
      "name": "DoctorRegistered",
      "type": "event"
    },
    {
      "anonymous": false,
      "inputs": [
        {
          "indexed": true,
          "internalType": "address",
          "name": "patient",
          "type": "address"
        },
        {
          "indexed": false,
          "internalType": "string",
          "name": "recordId",
          "type": "string"
        }
      ],
      "name": "HealthRecordCreated",
      "type": "event"
    },
    {
      "anonymous": false,
      "inputs": [
        {
          "indexed": true,
          "internalType": "address",
          "name": "patient",
          "type": "address"
        },
        {
          "indexed": false,
          "internalType": "string",
          "name": "recordId",
          "type": "string"
        }
      ],
      "name": "HealthRecordDeleted",
      "type": "event"
    },
    {
      "anonymous": false,
      "inputs": [
        {
          "indexed": true,
          "internalType": "address",
          "name": "patient",
          "type": "address"
        },
        {
          "indexed": false,
          "internalType": "string",
          "name": "recordId",
          "type": "string"
        }
      ],
      "name": "HealthRecordRevertDeleted",
      "type": "event"
    },
    {
      "anonymous": false,
      "inputs": [
        {
          "indexed": true,
          "internalType": "address",
          "name": "patient",
          "type": "address"
        },
        {
          "indexed": false,
          "internalType": "string",
          "name": "recordId",
          "type": "string"
        }
      ],
      "name": "HealthRecordUpdated",
      "type": "event"
    },
    {
      "anonymous": false,
      "inputs": [
        {
          "indexed": true,
          "internalType": "address",
          "name": "patient",
          "type": "address"
        }
      ],
      "name": "PatientRegistered",
      "type": "event"
    },
    {
      "anonymous": false,
      "inputs": [
        {
          "indexed": true,
          "internalType": "address",
          "name": "creator",
          "type": "address"
        },
        {
          "indexed": false,
          "internalType": "string",
          "name": "message",
          "type": "string"
        }
      ],
      "name": "SendTest",
      "type": "event"
    },
    {
      "inputs": [
        {
          "internalType": "address",
          "name": "senderAddress",
          "type": "address"
        },
        {
          "internalType": "string",
          "name": "name",
          "type": "string"
        },
        {
          "internalType": "string",
          "name": "birthDate",
          "type": "string"
        },
        {
          "internalType": "string",
          "name": "homeAddress",
          "type": "string"
        },
        {
          "internalType": "string",
          "name": "aesKey",
          "type": "string"
        },
        {
          "internalType": "string",
          "name": "passKey",
          "type": "string"
        },
        {
          "internalType": "string",
          "name": "role",
          "type": "string"
        }
      ],
      "name": "registerUser",
      "outputs": [],
      "stateMutability": "nonpayable",
      "type": "function"
    },
    {
      "inputs": [
        {
          "internalType": "address",
          "name": "addressUser",
          "type": "address"
        }
      ],
      "name": "checkIsUserRegistered",
      "outputs": [
        {
          "internalType": "bool",
          "name": "",
          "type": "bool"
        }
      ],
      "stateMutability": "view",
      "type": "function"
    },
    {
      "inputs": [
        {
          "internalType": "address",
          "name": "userAddress",
          "type": "address"
        }
      ],
      "name": "getUser",
      "outputs": [
        {
          "components": [
            {
              "internalType": "string",
              "name": "name",
              "type": "string"
            },
            {
              "internalType": "string",
              "name": "birthDate",
              "type": "string"
            },
            {
              "internalType": "string",
              "name": "homeAddress",
              "type": "string"
            },
            {
              "internalType": "string",
              "name": "aesKey",
              "type": "string"
            },
            {
              "internalType": "string",
              "name": "passKey",
              "type": "string"
            },
            {
              "internalType": "string",
              "name": "role",
              "type": "string"
            },
            {
              "internalType": "address",
              "name": "ethAddress",
              "type": "address"
            }
          ],
          "internalType": "struct StorageHealthRecords.User",
          "name": "",
          "type": "tuple"
        }
      ],
      "stateMutability": "view",
      "type": "function"
    },
    {
      "inputs": [],
      "name": "getAllRegisteredPatients",
      "outputs": [
        {
          "internalType": "address[]",
          "name": "",
          "type": "address[]"
        }
      ],
      "stateMutability": "view",
      "type": "function"
    },
    {
      "inputs": [],
      "name": "getAllRegisteredDoctors",
      "outputs": [
        {
          "internalType": "address[]",
          "name": "",
          "type": "address[]"
        }
      ],
      "stateMutability": "view",
      "type": "function"
    },
    {
      "inputs": [
        {
          "internalType": "address",
          "name": "patientAddress",
          "type": "address"
        },
        {
          "internalType": "address",
          "name": "senderAddress",
          "type": "address"
        }
      ],
      "name": "getPatientDetails",
      "outputs": [
        {
          "internalType": "string",
          "name": "name",
          "type": "string"
        },
        {
          "internalType": "string",
          "name": "birthDate",
          "type": "string"
        },
        {
          "internalType": "string",
          "name": "homeAddress",
          "type": "string"
        },
        {
          "internalType": "string",
          "name": "aesKey",
          "type": "string"
        },
        {
          "internalType": "string",
          "name": "role",
          "type": "string"
        },
        {
          "internalType": "address[]",
          "name": "doctorsApproved",
          "type": "address[]"
        },
        {
          "internalType": "address[]",
          "name": "doctorsPending",
          "type": "address[]"
        },
        {
          "components": [
            {
              "internalType": "string",
              "name": "id",
              "type": "string"
            },
            {
              "internalType": "address",
              "name": "creatorAddress",
              "type": "address"
            },
            {
              "internalType": "string",
              "name": "description",
              "type": "string"
            },
            {
              "internalType": "string",
              "name": "cid",
              "type": "string"
            },
            {
              "internalType": "string",
              "name": "recordType",
              "type": "string"
            },
            {
              "internalType": "string",
              "name": "createdAt",
              "type": "string"
            },
            {
              "internalType": "bool",
              "name": "isActive",
              "type": "bool"
            },
            {
              "internalType": "uint256",
              "name": "version",
              "type": "uint256"
            },
            {
              "internalType": "string",
              "name": "previousId",
              "type": "string"
            }
          ],
          "internalType": "struct StorageHealthRecords.HealthRecord[]",
          "name": "healthRecords",
          "type": "tuple[]"
        },
        {
          "components": [
            {
              "internalType": "string",
              "name": "id",
              "type": "string"
            },
            {
              "internalType": "address",
              "name": "creatorAddress",
              "type": "address"
            },
            {
              "internalType": "string",
              "name": "description",
              "type": "string"
            },
            {
              "internalType": "string",
              "name": "cid",
              "type": "string"
            },
            {
              "internalType": "string",
              "name": "recordType",
              "type": "string"
            },
            {
              "internalType": "string",
              "name": "createdAt",
              "type": "string"
            },
            {
              "internalType": "bool",
              "name": "isActive",
              "type": "bool"
            },
            {
              "internalType": "uint256",
              "name": "version",
              "type": "uint256"
            },
            {
              "internalType": "string",
              "name": "previousId",
              "type": "string"
            }
          ],
          "internalType": "struct StorageHealthRecords.HealthRecord[]",
          "name": "oldHealthRecords",
          "type": "tuple[]"
        }
      ],
      "stateMutability": "view",
      "type": "function"
    },
    {
      "inputs": [
        {
          "internalType": "address",
          "name": "doctorAddress",
          "type": "address"
        }
      ],
      "name": "getDoctorDetails",
      "outputs": [
        {
          "internalType": "string",
          "name": "name",
          "type": "string"
        },
        {
          "internalType": "string",
          "name": "birthDate",
          "type": "string"
        },
        {
          "internalType": "string",
          "name": "homeAddress",
          "type": "string"
        },
        {
          "internalType": "string",
          "name": "aesKey",
          "type": "string"
        },
        {
          "internalType": "string",
          "name": "role",
          "type": "string"
        },
        {
          "internalType": "address[]",
          "name": "patientsApproved",
          "type": "address[]"
        },
        {
          "internalType": "address[]",
          "name": "patientsPending",
          "type": "address[]"
        }
      ],
      "stateMutability": "view",
      "type": "function"
    },
    {
      "inputs": [
        {
          "internalType": "address",
          "name": "senderAddress",
          "type": "address"
        },
        {
          "internalType": "address",
          "name": "patientAddress",
          "type": "address"
        },
        {
          "internalType": "string",
          "name": "newRecordId",
          "type": "string"
        },
        {
          "internalType": "string",
          "name": "description",
          "type": "string"
        },
        {
          "internalType": "string",
          "name": "cid",
          "type": "string"
        },
        {
          "internalType": "string",
          "name": "recordType",
          "type": "string"
        },
        {
          "internalType": "string",
          "name": "createdAt",
          "type": "string"
        }
      ],
      "name": "createHealthRecord",
      "outputs": [],
      "stateMutability": "nonpayable",
      "type": "function"
    },
    {
      "inputs": [
        {
          "internalType": "address",
          "name": "senderAddress",
          "type": "address"
        },
        {
          "internalType": "address",
          "name": "patientAddress",
          "type": "address"
        },
        {
          "internalType": "string",
          "name": "recordId",
          "type": "string"
        }
      ],
      "name": "getHealthRecord",
      "outputs": [
        {
          "components": [
            {
              "internalType": "string",
              "name": "id",
              "type": "string"
            },
            {
              "internalType": "address",
              "name": "creatorAddress",
              "type": "address"
            },
            {
              "internalType": "string",
              "name": "description",
              "type": "string"
            },
            {
              "internalType": "string",
              "name": "cid",
              "type": "string"
            },
            {
              "internalType": "string",
              "name": "recordType",
              "type": "string"
            },
            {
              "internalType": "string",
              "name": "createdAt",
              "type": "string"
            },
            {
              "internalType": "bool",
              "name": "isActive",
              "type": "bool"
            },
            {
              "internalType": "uint256",
              "name": "version",
              "type": "uint256"
            },
            {
              "internalType": "string",
              "name": "previousId",
              "type": "string"
            }
          ],
          "internalType": "struct StorageHealthRecords.HealthRecord",
          "name": "",
          "type": "tuple"
        }
      ],
      "stateMutability": "view",
      "type": "function"
    },
    {
      "inputs": [
        {
          "internalType": "address",
          "name": "senderAddress",
          "type": "address"
        },
        {
          "internalType": "address",
          "name": "patientAddress",
          "type": "address"
        }
      ],
      "name": "getHealthRecordsByAddress",
      "outputs": [
        {
          "components": [
            {
              "internalType": "string",
              "name": "id",
              "type": "string"
            },
            {
              "internalType": "address",
              "name": "creatorAddress",
              "type": "address"
            },
            {
              "internalType": "string",
              "name": "description",
              "type": "string"
            },
            {
              "internalType": "string",
              "name": "cid",
              "type": "string"
            },
            {
              "internalType": "string",
              "name": "recordType",
              "type": "string"
            },
            {
              "internalType": "string",
              "name": "createdAt",
              "type": "string"
            },
            {
              "internalType": "bool",
              "name": "isActive",
              "type": "bool"
            },
            {
              "internalType": "uint256",
              "name": "version",
              "type": "uint256"
            },
            {
              "internalType": "string",
              "name": "previousId",
              "type": "string"
            }
          ],
          "internalType": "struct StorageHealthRecords.HealthRecord[]",
          "name": "",
          "type": "tuple[]"
        }
      ],
      "stateMutability": "view",
      "type": "function"
    },
    {
      "inputs": [
        {
          "internalType": "address",
          "name": "senderAddress",
          "type": "address"
        },
        {
          "internalType": "address",
          "name": "patientAddress",
          "type": "address"
        },
        {
          "internalType": "string",
          "name": "newRecordId",
          "type": "string"
        },
        {
          "internalType": "string",
          "name": "recordId",
          "type": "string"
        },
        {
          "internalType": "string",
          "name": "description",
          "type": "string"
        },
        {
          "internalType": "string",
          "name": "cid",
          "type": "string"
        },
        {
          "internalType": "string",
          "name": "recordType",
          "type": "string"
        },
        {
          "internalType": "string",
          "name": "createdAt",
          "type": "string"
        }
      ],
      "name": "updateHealthRecord",
      "outputs": [],
      "stateMutability": "nonpayable",
      "type": "function"
    },
    {
      "inputs": [
        {
          "internalType": "address",
          "name": "senderAddress",
          "type": "address"
        },
        {
          "internalType": "address",
          "name": "patientAddress",
          "type": "address"
        },
        {
          "internalType": "string",
          "name": "recordId",
          "type": "string"
        }
      ],
      "name": "deleteHealthRecord",
      "outputs": [],
      "stateMutability": "nonpayable",
      "type": "function"
    },
    {
      "inputs": [
        {
          "internalType": "address",
          "name": "senderAddress",
          "type": "address"
        },
        {
          "internalType": "address",
          "name": "patientAddress",
          "type": "address"
        },
        {
          "internalType": "string",
          "name": "recordId",
          "type": "string"
        }
      ],
      "name": "revertDeleteHealthRecord",
      "outputs": [],
      "stateMutability": "nonpayable",
      "type": "function"
    },
    {
      "inputs": [
        {
          "internalType": "address",
          "name": "senderAddress",
          "type": "address"
        },
        {
          "internalType": "address",
          "name": "doctorAddress",
          "type": "address"
        },
        {
          "internalType": "bool",
          "name": "canCreate",
          "type": "bool"
        },
        {
          "internalType": "bool",
          "name": "canRead",
          "type": "bool"
        },
        {
          "internalType": "bool",
          "name": "canUpdate",
          "type": "bool"
        },
        {
          "internalType": "bool",
          "name": "canDelete",
          "type": "bool"
        }
      ],
      "name": "permissionPatientGrantDoctor",
      "outputs": [],
      "stateMutability": "nonpayable",
      "type": "function"
    },
    {
      "inputs": [
        {
          "internalType": "address",
          "name": "senderAddress",
          "type": "address"
        },
        {
          "internalType": "address",
          "name": "doctorAddress",
          "type": "address"
        }
      ],
      "name": "permissionPatientRevokeDoctor",
      "outputs": [],
      "stateMutability": "nonpayable",
      "type": "function"
    },
    {
      "inputs": [
        {
          "internalType": "address",
          "name": "senderAddress",
          "type": "address"
        },
        {
          "internalType": "address",
          "name": "patientAddress",
          "type": "address"
        },
        {
          "internalType": "bool",
          "name": "canCreate",
          "type": "bool"
        },
        {
          "internalType": "bool",
          "name": "canRead",
          "type": "bool"
        },
        {
          "internalType": "bool",
          "name": "canUpdate",
          "type": "bool"
        },
        {
          "internalType": "bool",
          "name": "canDelete",
          "type": "bool"
        }
      ],
      "name": "requestAccessDoctor",
      "outputs": [],
      "stateMutability": "nonpayable",
      "type": "function"
    },
    {
      "inputs": [
        {
          "internalType": "address",
          "name": "senderAddress",
          "type": "address"
        },
        {
          "internalType": "address",
          "name": "doctorAddress",
          "type": "address"
        }
      ],
      "name": "requestAccessApproved",
      "outputs": [],
      "stateMutability": "nonpayable",
      "type": "function"
    },
    {
      "inputs": [
        {
          "internalType": "address",
          "name": "senderAddress",
          "type": "address"
        },
        {
          "internalType": "address",
          "name": "doctorAddress",
          "type": "address"
        }
      ],
      "name": "requestAccessDenied",
      "outputs": [],
      "stateMutability": "nonpayable",
      "type": "function"
    },
    {
      "inputs": [
        {
          "internalType": "address",
          "name": "patientAddress",
          "type": "address"
        }
      ],
      "name": "getPatientDoctors",
      "outputs": [
        {
          "components": [
            {
              "internalType": "address",
              "name": "userAddress",
              "type": "address"
            },
            {
              "internalType": "bool",
              "name": "canCreate",
              "type": "bool"
            },
            {
              "internalType": "bool",
              "name": "canRead",
              "type": "bool"
            },
            {
              "internalType": "bool",
              "name": "canUpdate",
              "type": "bool"
            },
            {
              "internalType": "bool",
              "name": "canDelete",
              "type": "bool"
            }
          ],
          "internalType": "struct StorageHealthRecords.AccessResponse[]",
          "name": "approved",
          "type": "tuple[]"
        },
        {
          "components": [
            {
              "internalType": "address",
              "name": "userAddress",
              "type": "address"
            },
            {
              "internalType": "bool",
              "name": "canCreate",
              "type": "bool"
            },
            {
              "internalType": "bool",
              "name": "canRead",
              "type": "bool"
            },
            {
              "internalType": "bool",
              "name": "canUpdate",
              "type": "bool"
            },
            {
              "internalType": "bool",
              "name": "canDelete",
              "type": "bool"
            }
          ],
          "internalType": "struct StorageHealthRecords.AccessResponse[]",
          "name": "pending",
          "type": "tuple[]"
        }
      ],
      "stateMutability": "view",
      "type": "function"
    },
    {
      "inputs": [
        {
          "internalType": "address",
          "name": "doctorAddress",
          "type": "address"
        }
      ],
      "name": "getDoctorPatients",
      "outputs": [
        {
          "components": [
            {
              "internalType": "address",
              "name": "userAddress",
              "type": "address"
            },
            {
              "internalType": "bool",
              "name": "canCreate",
              "type": "bool"
            },
            {
              "internalType": "bool",
              "name": "canRead",
              "type": "bool"
            },
            {
              "internalType": "bool",
              "name": "canUpdate",
              "type": "bool"
            },
            {
              "internalType": "bool",
              "name": "canDelete",
              "type": "bool"
            }
          ],
          "internalType": "struct StorageHealthRecords.AccessResponse[]",
          "name": "approved",
          "type": "tuple[]"
        },
        {
          "components": [
            {
              "internalType": "address",
              "name": "userAddress",
              "type": "address"
            },
            {
              "internalType": "bool",
              "name": "canCreate",
              "type": "bool"
            },
            {
              "internalType": "bool",
              "name": "canRead",
              "type": "bool"
            },
            {
              "internalType": "bool",
              "name": "canUpdate",
              "type": "bool"
            },
            {
              "internalType": "bool",
              "name": "canDelete",
              "type": "bool"
            }
          ],
          "internalType": "struct StorageHealthRecords.AccessResponse[]",
          "name": "pending",
          "type": "tuple[]"
        }
      ],
      "stateMutability": "view",
      "type": "function"
    },
    {
      "inputs": [
        {
          "internalType": "address",
          "name": "doctorAddress",
          "type": "address"
        },
        {
          "internalType": "address",
          "name": "patientAddress",
          "type": "address"
        }
      ],
      "name": "getDoctorPermission",
      "outputs": [
        {
          "components": [
            {
              "internalType": "address",
              "name": "userAddress",
              "type": "address"
            },
            {
              "internalType": "bool",
              "name": "canCreate",
              "type": "bool"
            },
            {
              "internalType": "bool",
              "name": "canRead",
              "type": "bool"
            },
            {
              "internalType": "bool",
              "name": "canUpdate",
              "type": "bool"
            },
            {
              "internalType": "bool",
              "name": "canDelete",
              "type": "bool"
            }
          ],
          "internalType": "struct StorageHealthRecords.AccessResponse",
          "name": "",
          "type": "tuple"
        }
      ],
      "stateMutability": "view",
      "type": "function"
    },
    {
      "inputs": [
        {
          "internalType": "address",
          "name": "addr",
          "type": "address"
        }
      ],
      "name": "addressToString",
      "outputs": [
        {
          "internalType": "string",
          "name": "",
          "type": "string"
        }
      ],
      "stateMutability": "pure",
      "type": "function"
    },
    {
      "inputs": [
        {
          "internalType": "string",
          "name": "message",
          "type": "string"
        }
      ],
      "name": "testSendTransaction",
      "outputs": [],
      "stateMutability": "nonpayable",
      "type": "function"
    }
  ],
  "bytecode": "0x608060405234801561001057600080fd5b5061597a80620000216000396000f3fe608060405234801561001057600080fd5b506004361061014d5760003560e01c80639673ccd0116100c3578063c71e105c1161007c578063c71e105c1461031e578063ccfcdc6e14610331578063df95b99514610344578063e4d93e4f14610357578063f567ac7f1461036a578063f7d516d71461037d57600080fd5b80639673ccd0146102725780639e515fb514610292578063a5faca9e146102a5578063ba508467146102c5578063bab90dbd146102d8578063c40efcf5146102fe57600080fd5b80635af109a8116101155780635af109a8146101f15780635e3b30c8146102045780635e57966d14610217578063603b7e8a146102375780636f77926b1461024a5780638f7741ac1461026a57600080fd5b80630e9a705a146101525780630ea12c1a146101835780630f5350df146101a6578063413f107a146101bb57806352242f55146101d0575b600080fd5b610165610160366004614cd0565b610390565b60405161017a99989796959493929190614ecb565b60405180910390f35b610196610191366004614f90565b611140565b604051901515815260200161017a565b6101b96101b4366004615055565b611185565b005b6101c361139b565b60405161017a91906150b3565b6101e36101de366004614f90565b6113fd565b60405161017a92919061513e565b6101b96101ff36600461517c565b611539565b6101b9610212366004614cd0565b611634565b61022a610225366004614f90565b611812565b60405161017a91906151f0565b6101b9610245366004615203565b611a16565b61025d610258366004614f90565b611c6a565b60405161017a91906152f6565b6101c36120dd565b610285610280366004614cd0565b61213d565b60405161017a91906153c3565b6101b96102a03660046153d6565b6125e4565b6102b86102b3366004614cd0565b6129c6565b60405161017a9190615439565b6101e36102d3366004614f90565b612b76565b6102eb6102e6366004614f90565b612ca4565b60405161017a9796959493929190615447565b61031161030c366004615055565b6131ab565b60405161017a91906154de565b6101b961032c366004615055565b61378f565b6101b961033f366004614cd0565b613947565b6101b961035236600461517c565b613a22565b6101b9610365366004614cd0565b613c22565b6101b96103783660046154f1565b613d70565b6101b961038b36600461552e565b613db4565b6001600160a01b038216600090815260056020526040902054606090819081908190819081908190819081908b9060ff166103e65760405162461bcd60e51b81526004016103dd90615646565b60405180910390fd5b8b6001600160a01b03168b6001600160a01b0316148061045457506001600160a01b038b1660009081526006602052604090205460ff16801561045457506001600160a01b038c81166000908152600760209081526040808320938f168352929052205462010000900460ff165b6104705760405162461bcd60e51b81526004016103dd90615676565b6001600160a01b038c16600090815260026020526040808220815160e081019092528054829082906104a1906156a3565b80601f01602080910402602001604051908101604052809291908181526020018280546104cd906156a3565b801561051a5780601f106104ef5761010080835404028352916020019161051a565b820191906000526020600020905b8154815290600101906020018083116104fd57829003601f168201915b50505050508152602001600182018054610533906156a3565b80601f016020809104026020016040519081016040528092919081815260200182805461055f906156a3565b80156105ac5780601f10610581576101008083540402835291602001916105ac565b820191906000526020600020905b81548152906001019060200180831161058f57829003601f168201915b505050505081526020016002820180546105c5906156a3565b80601f01602080910402602001604051908101604052809291908181526020018280546105f1906156a3565b801561063e5780601f106106135761010080835404028352916020019161063e565b820191906000526020600020905b81548152906001019060200180831161062157829003601f168201915b50505050508152602001600382018054610657906156a3565b80601f0160208091040260200160405190810160405280929190818152602001828054610683906156a3565b80156106d05780601f106106a5576101008083540402835291602001916106d0565b820191906000526020600020905b8154815290600101906020018083116106b357829003601f168201915b505050505081526020016004820180546106e9906156a3565b80601f0160208091040260200160405190810160405280929190818152602001828054610715906156a3565b80156107625780601f1061073757610100808354040283529160200191610762565b820191906000526020600020905b81548152906001019060200180831161074557829003601f168201915b5050505050815260200160058201805461077b906156a3565b80601f01602080910402602001604051908101604052809291908181526020018280546107a7906156a3565b80156107f45780601f106107c9576101008083540402835291602001916107f4565b820191906000526020600020905b8154815290600101906020018083116107d757829003601f168201915b5050509183525050600691909101546001600160a01b039081166020928301528f1660009081526003825260408082208151815460a095810282018601909352608081018381529596509294929390928492909184919084018282801561088457602002820191906000526020600020905b81546001600160a01b03168152600190910190602001808311610866575b50505050508152602001600182018054806020026020016040519081016040528092919081815260200182805480156108e657602002820191906000526020600020905b81546001600160a01b031681526001909101906020018083116108c8575b5050505050815260200160028201805480602002602001604051908101604052809291908181526020016000905b82821015610ce7578382906000526020600020906009020160405180610120016040529081600082018054610948906156a3565b80601f0160208091040260200160405190810160405280929190818152602001828054610974906156a3565b80156109c15780601f10610996576101008083540402835291602001916109c1565b820191906000526020600020905b8154815290600101906020018083116109a457829003601f168201915b505050918352505060018201546001600160a01b031660208201526002820180546040909201916109f1906156a3565b80601f0160208091040260200160405190810160405280929190818152602001828054610a1d906156a3565b8015610a6a5780601f10610a3f57610100808354040283529160200191610a6a565b820191906000526020600020905b815481529060010190602001808311610a4d57829003601f168201915b50505050508152602001600382018054610a83906156a3565b80601f0160208091040260200160405190810160405280929190818152602001828054610aaf906156a3565b8015610afc5780601f10610ad157610100808354040283529160200191610afc565b820191906000526020600020905b815481529060010190602001808311610adf57829003601f168201915b50505050508152602001600482018054610b15906156a3565b80601f0160208091040260200160405190810160405280929190818152602001828054610b41906156a3565b8015610b8e5780601f10610b6357610100808354040283529160200191610b8e565b820191906000526020600020905b815481529060010190602001808311610b7157829003601f168201915b50505050508152602001600582018054610ba7906156a3565b80601f0160208091040260200160405190810160405280929190818152602001828054610bd3906156a3565b8015610c205780601f10610bf557610100808354040283529160200191610c20565b820191906000526020600020905b815481529060010190602001808311610c0357829003601f168201915b5050509183525050600682015460ff161515602082015260078201546040820152600882018054606090920191610c56906156a3565b80601f0160208091040260200160405190810160405280929190818152602001828054610c82906156a3565b8015610ccf5780601f10610ca457610100808354040283529160200191610ccf565b820191906000526020600020905b815481529060010190602001808311610cb257829003601f168201915b50505050508152505081526020019060010190610914565b50505050815260200160038201805480602002602001604051908101604052809291908181526020016000905b828210156110e7578382906000526020600020906009020160405180610120016040529081600082018054610d48906156a3565b80601f0160208091040260200160405190810160405280929190818152602001828054610d74906156a3565b8015610dc15780601f10610d9657610100808354040283529160200191610dc1565b820191906000526020600020905b815481529060010190602001808311610da457829003601f168201915b505050918352505060018201546001600160a01b03166020820152600282018054604090920191610df1906156a3565b80601f0160208091040260200160405190810160405280929190818152602001828054610e1d906156a3565b8015610e6a5780601f10610e3f57610100808354040283529160200191610e6a565b820191906000526020600020905b815481529060010190602001808311610e4d57829003601f168201915b50505050508152602001600382018054610e83906156a3565b80601f0160208091040260200160405190810160405280929190818152602001828054610eaf906156a3565b8015610efc5780601f10610ed157610100808354040283529160200191610efc565b820191906000526020600020905b815481529060010190602001808311610edf57829003601f168201915b50505050508152602001600482018054610f15906156a3565b80601f0160208091040260200160405190810160405280929190818152602001828054610f41906156a3565b8015610f8e5780601f10610f6357610100808354040283529160200191610f8e565b820191906000526020600020905b815481529060010190602001808311610f7157829003601f168201915b50505050508152602001600582018054610fa7906156a3565b80601f0160208091040260200160405190810160405280929190818152602001828054610fd3906156a3565b80156110205780601f10610ff557610100808354040283529160200191611020565b820191906000526020600020905b81548152906001019060200180831161100357829003601f168201915b5050509183525050600682015460ff161515602082015260078201546040820152600882018054606090920191611056906156a3565b80601f0160208091040260200160405190810160405280929190818152602001828054611082906156a3565b80156110cf5780601f106110a4576101008083540402835291602001916110cf565b820191906000526020600020905b8154815290600101906020018083116110b257829003601f168201915b50505050508152505081526020019060010190610d14565b5050505081525050905081600001518260200151836040015184606001518560a0015185600001518660200151876040015188606001519b509b509b509b509b509b509b509b509b505050509295985092959850929598565b6001600160a01b03811660009081526005602052604081205460ff168061117f57506001600160a01b03821660009081526006602052604090205460ff165b92915050565b6001600160a01b038216600090815260056020526040902054829060ff166111bf5760405162461bcd60e51b81526004016103dd90615646565b826001600160a01b0316846001600160a01b0316148061122f57506001600160a01b03841660009081526006602052604090205460ff16801561122f57506001600160a01b03838116600090815260076020908152604080832093881683529290522054640100000000900460ff165b61124b5760405162461bcd60e51b81526004016103dd90615676565b6001600160a01b0383166000908152600360205260408120600201905b815481101561134c57838051906020012082828154811061128b5761128b6156dd565b90600052602060002090600902016000016040516112a991906156f3565b60405180910390200361133a5760008282815481106112ca576112ca6156dd565b906000526020600020906009020160060160006101000a81548160ff021916908315150217905550846001600160a01b03167fbca92ff773fe1b82af61f0293353889ec496a5ca64b356a380b41783aa69f9ae8560405161132b91906151f0565b60405180910390a25050611395565b806113448161577f565b915050611268565b5060405162461bcd60e51b815260206004820152601760248201527f4865616c7468207265636f7264206e6f7420666f756e6400000000000000000060448201526064016103dd565b50505050565b606060008054806020026020016040519081016040528092919081815260200182805480156113f357602002820191906000526020600020905b81546001600160a01b031681526001909101906020018083116113d5575b5050505050905090565b6001600160a01b0381166000908152600560205260409020546060908190839060ff1661143c5760405162461bcd60e51b81526004016103dd90615646565b6001600160a01b03841660009081526003602090815260409182902080548351818402810184019094528084526114b493928301828280156114a757602002820191906000526020600020905b81546001600160a01b03168152600190910190602001808311611489575b5050505050856001614599565b6001600160a01b038516600090815260036020908152604091829020600101805483518184028101840190945280845261152f939283018282801561152257602002820191906000526020600020905b81546001600160a01b03168152600190910190602001808311611504575b5050505050866000614599565b9250925050915091565b6001600160a01b038616600090815260056020526040902054869060ff166115735760405162461bcd60e51b81526004016103dd90615646565b6001600160a01b038616600090815260066020526040902054869060ff166115ad5760405162461bcd60e51b81526004016103dd90615798565b6115bd88888888888860016147c3565b866001600160a01b0316886001600160a01b03167fcc7f0cd5708e7c282b3938e7950d37b95821195d2d1a71a5897d6512f30c652488888888604051611622949392919093151584529115156020840152151560408301521515606082015260800190565b60405180910390a35050505050505050565b6001600160a01b038216600090815260056020526040902054829060ff1661166e5760405162461bcd60e51b81526004016103dd90615646565b6001600160a01b038216600090815260066020526040902054829060ff166116a85760405162461bcd60e51b81526004016103dd90615798565b6001600160a01b038085166000908152600860209081526040808320938716835292815290829020825160a081018452905460ff80821615158084526101008304821615159484019490945262010000820481161515948301949094526301000000810484161515606083015264010000000090049092161515608083015261176e5760405162461bcd60e51b81526020600482015260186024820152771058d8d95cdcc81c995c5d595cdd081b9bdd08199bdd5b9960421b60448201526064016103dd565b61178e8585836020015184604001518560600151866080015160016147c3565b836001600160a01b0316856001600160a01b03167fcc7f0cd5708e7c282b3938e7950d37b95821195d2d1a71a5897d6512f30c65248360200151846040015185606001518660800151604051611803949392919093151584529115156020840152151560408301521515606082015260800190565b60405180910390a35050505050565b604051606082811b6bffffffffffffffffffffffff191660208301529060009060340160408051808303601f190181528282018252601083526f181899199a1a9b1b9c1cb0b131b232b360811b60208401528151602a80825260608201909352909350600091602082018180368337019050509050600360fc1b8160008151811061189f5761189f6156dd565b60200101906001600160f81b031916908160001a905350600f60fb1b816001815181106118ce576118ce6156dd565b60200101906001600160f81b031916908160001a90535060005b6014811015611a0d57826004858381518110611906576119066156dd565b016020015182516001600160f81b031990911690911c60f81c90811061192e5761192e6156dd565b01602001516001600160f81b031916826119498360026157c7565b6119549060026157de565b81518110611964576119646156dd565b60200101906001600160f81b031916908160001a9053508284828151811061198e5761198e6156dd565b602091010151815160f89190911c600f169081106119ae576119ae6156dd565b01602001516001600160f81b031916826119c98360026157c7565b6119d49060036157de565b815181106119e4576119e46156dd565b60200101906001600160f81b031916908160001a90535080611a058161577f565b9150506118e8565b50949350505050565b6001600160a01b038616600090815260056020526040902054869060ff16611a505760405162461bcd60e51b81526004016103dd90615646565b866001600160a01b0316886001600160a01b03161480611abd57506001600160a01b03881660009081526006602052604090205460ff168015611abd57506001600160a01b038781166000908152600760209081526040808320938c1683529290522054610100900460ff165b611ad95760405162461bcd60e51b81526004016103dd90615676565b6001600160a01b0380881660009081526003602090815260408083208151610120810183528b8152948d16858401528482018a9052606085018990526080850188905260a08501879052600160c0860181905260e08601819052825180850190935284835261010086019290925260020180549182018155835291208251600990920201908190611b6a908261583f565b5060208201516001820180546001600160a01b0319166001600160a01b0390921691909117905560408201516002820190611ba5908261583f565b5060608201516003820190611bba908261583f565b5060808201516004820190611bcf908261583f565b5060a08201516005820190611be4908261583f565b5060c082015160068201805460ff191691151591909117905560e082015160078201556101008201516008820190611c1c908261583f565b505050866001600160a01b03167f5abd141eb3688cbf42777909029ca2ace43a63fb88e1477ba82fb4858861354587604051611c5891906151f0565b60405180910390a25050505050505050565b611cb36040518060e0016040528060608152602001606081526020016060815260200160608152602001606081526020016060815260200160006001600160a01b031681525090565b6001600160a01b03821660009081526005602052604090205460ff1680611cf257506001600160a01b03821660009081526006602052604090205460ff165b611d345760405162461bcd60e51b8152602060048201526013602482015272155cd95c881b9bdd081c9959da5cdd195c9959606a1b60448201526064016103dd565b6001600160a01b03821660009081526002602052604090819020815160e08101909252805482908290611d66906156a3565b80601f0160208091040260200160405190810160405280929190818152602001828054611d92906156a3565b8015611ddf5780601f10611db457610100808354040283529160200191611ddf565b820191906000526020600020905b815481529060010190602001808311611dc257829003601f168201915b50505050508152602001600182018054611df8906156a3565b80601f0160208091040260200160405190810160405280929190818152602001828054611e24906156a3565b8015611e715780601f10611e4657610100808354040283529160200191611e71565b820191906000526020600020905b815481529060010190602001808311611e5457829003601f168201915b50505050508152602001600282018054611e8a906156a3565b80601f0160208091040260200160405190810160405280929190818152602001828054611eb6906156a3565b8015611f035780601f10611ed857610100808354040283529160200191611f03565b820191906000526020600020905b815481529060010190602001808311611ee657829003601f168201915b50505050508152602001600382018054611f1c906156a3565b80601f0160208091040260200160405190810160405280929190818152602001828054611f48906156a3565b8015611f955780601f10611f6a57610100808354040283529160200191611f95565b820191906000526020600020905b815481529060010190602001808311611f7857829003601f168201915b50505050508152602001600482018054611fae906156a3565b80601f0160208091040260200160405190810160405280929190818152602001828054611fda906156a3565b80156120275780601f10611ffc57610100808354040283529160200191612027565b820191906000526020600020905b81548152906001019060200180831161200a57829003601f168201915b50505050508152602001600582018054612040906156a3565b80601f016020809104026020016040519081016040528092919081815260200182805461206c906156a3565b80156120b95780601f1061208e576101008083540402835291602001916120b9565b820191906000526020600020905b81548152906001019060200180831161209c57829003601f168201915b5050509183525050600691909101546001600160a01b031660209091015292915050565b606060018054806020026020016040519081016040528092919081815260200182805480156113f3576020028201919060005260206000209081546001600160a01b031681526001909101906020018083116113d5575050505050905090565b6001600160a01b038116600090815260056020526040902054606090829060ff1661217a5760405162461bcd60e51b81526004016103dd90615646565b6001600160a01b03841660009081526006602052604090205460ff16806121b25750826001600160a01b0316846001600160a01b0316145b6121ce5760405162461bcd60e51b81526004016103dd90615676565b6001600160a01b038316600090815260036020908152604080832060020180548251818502810185019093528083529193909284015b828210156125d7578382906000526020600020906009020160405180610120016040529081600082018054612238906156a3565b80601f0160208091040260200160405190810160405280929190818152602001828054612264906156a3565b80156122b15780601f10612286576101008083540402835291602001916122b1565b820191906000526020600020905b81548152906001019060200180831161229457829003601f168201915b505050918352505060018201546001600160a01b031660208201526002820180546040909201916122e1906156a3565b80601f016020809104026020016040519081016040528092919081815260200182805461230d906156a3565b801561235a5780601f1061232f5761010080835404028352916020019161235a565b820191906000526020600020905b81548152906001019060200180831161233d57829003601f168201915b50505050508152602001600382018054612373906156a3565b80601f016020809104026020016040519081016040528092919081815260200182805461239f906156a3565b80156123ec5780601f106123c1576101008083540402835291602001916123ec565b820191906000526020600020905b8154815290600101906020018083116123cf57829003601f168201915b50505050508152602001600482018054612405906156a3565b80601f0160208091040260200160405190810160405280929190818152602001828054612431906156a3565b801561247e5780601f106124535761010080835404028352916020019161247e565b820191906000526020600020905b81548152906001019060200180831161246157829003601f168201915b50505050508152602001600582018054612497906156a3565b80601f01602080910402602001604051908101604052809291908181526020018280546124c3906156a3565b80156125105780601f106124e557610100808354040283529160200191612510565b820191906000526020600020905b8154815290600101906020018083116124f357829003601f168201915b5050509183525050600682015460ff161515602082015260078201546040820152600882018054606090920191612546906156a3565b80601f0160208091040260200160405190810160405280929190818152602001828054612572906156a3565b80156125bf5780601f10612594576101008083540402835291602001916125bf565b820191906000526020600020905b8154815290600101906020018083116125a257829003601f168201915b50505050508152505081526020019060010190612204565b5050505091505092915050565b6001600160a01b03871660009081526005602052604090205460ff1615801561262657506001600160a01b03871660009081526006602052604090205460ff16155b6126725760405162461bcd60e51b815260206004820152601760248201527f5573657220616c7265616479207265676973746572656400000000000000000060448201526064016103dd565b6040516614185d1a595b9d60ca1b602082015260270160405160208183030381529060405280519060200120816040516020016126af91906158ff565b6040516020818303038152906040528051906020012014806127205750604051652237b1ba37b960d11b6020820152602601604051602081830303815290604052805190602001208160405160200161270891906158ff565b60405160208183030381529060405280519060200120145b61275b5760405162461bcd60e51b815260206004820152600c60248201526b496e76616c696420726f6c6560a01b60448201526064016103dd565b6040805160e0810182528781526020808201889052818301879052606082018690526080820185905260a082018490526001600160a01b038a1660c083018190526000908152600290915291909120815181906127b8908261583f565b50602082015160018201906127cd908261583f565b50604082015160028201906127e2908261583f565b50606082015160038201906127f7908261583f565b506080820151600482019061280c908261583f565b5060a08201516005820190612821908261583f565b5060c09190910151600690910180546001600160a01b0319166001600160a01b039092169190911790556040516614185d1a595b9d60ca1b6020820152602701604051602081830303815290604052805190602001208160405160200161288891906158ff565b60405160208183030381529060405280519060200120036129335760008054600180820183557f290decd9548b62a8d60345a988386fc84ba6bc95484008f6362f93160ef3e56390910180546001600160a01b0319166001600160a01b038b1690811790915580835260056020526040808420805460ff1916909317909255905190917fc9fa2003fca4ce0dfc8cb0deae32266b715536df6685365b05b5be96ede8e49c91a26129bd565b6001805480820182557fb10e2d527612073b26eecdfd717e6a320cf44b4afac2b0732d9fcbe2b7fa0cf60180546001600160a01b0319166001600160a01b038a16908117909155600081815260066020526040808220805460ff1916909417909355915190917f2dc8105a7545248d0e354c4c6b02fb583071cc719fb4bef1ca74d72d475570bc91a25b50505050505050565b6040805160a0810182526000808252602080830182905282840182905260608301829052608083018290526001600160a01b0385168252600590529190912054829060ff16612a275760405162461bcd60e51b81526004016103dd90615646565b6001600160a01b038416600090815260066020526040902054849060ff16612a615760405162461bcd60e51b81526004016103dd90615798565b6001600160a01b038085166000908152600760209081526040808320938916835292815290829020825160a081018452905460ff808216151580845261010083048216151594840194909452620100008204811615159483019490945263010000008104841615156060830152640100000000900490921615156080830152612b235760405162461bcd60e51b815260206004820152601460248201527314195c9b5a5cdcda5bdb881b9bdd08199bdd5b9960621b60448201526064016103dd565b6040518060a00160405280876001600160a01b0316815260200182602001511515815260200182604001511515815260200182606001511515815260200182608001511515815250935050505092915050565b6001600160a01b0381166000908152600660205260409020546060908190839060ff16612bb55760405162461bcd60e51b81526004016103dd90615798565b6001600160a01b0384166000908152600460209081526040918290208054835181840281018401909452808452612c2b93928301828280156114a7576020028201919060005260206000209081546001600160a01b03168152600190910190602001808311611489575050505050856001614599565b6001600160a01b038516600090815260046020908152604091829020600101805483518184028101840190945280845261152f9392830182828015611522576020028201919060005260206000209081546001600160a01b03168152600190910190602001808311611504575050505050866000614599565b6001600160a01b038116600090815260066020526040902054606090819081908190819081908190889060ff16612ced5760405162461bcd60e51b81526004016103dd90615798565b6001600160a01b038916600090815260026020526040808220815160e08101909252805482908290612d1e906156a3565b80601f0160208091040260200160405190810160405280929190818152602001828054612d4a906156a3565b8015612d975780601f10612d6c57610100808354040283529160200191612d97565b820191906000526020600020905b815481529060010190602001808311612d7a57829003601f168201915b50505050508152602001600182018054612db0906156a3565b80601f0160208091040260200160405190810160405280929190818152602001828054612ddc906156a3565b8015612e295780601f10612dfe57610100808354040283529160200191612e29565b820191906000526020600020905b815481529060010190602001808311612e0c57829003601f168201915b50505050508152602001600282018054612e42906156a3565b80601f0160208091040260200160405190810160405280929190818152602001828054612e6e906156a3565b8015612ebb5780601f10612e9057610100808354040283529160200191612ebb565b820191906000526020600020905b815481529060010190602001808311612e9e57829003601f168201915b50505050508152602001600382018054612ed4906156a3565b80601f0160208091040260200160405190810160405280929190818152602001828054612f00906156a3565b8015612f4d5780601f10612f2257610100808354040283529160200191612f4d565b820191906000526020600020905b815481529060010190602001808311612f3057829003601f168201915b50505050508152602001600482018054612f66906156a3565b80601f0160208091040260200160405190810160405280929190818152602001828054612f92906156a3565b8015612fdf5780601f10612fb457610100808354040283529160200191612fdf565b820191906000526020600020905b815481529060010190602001808311612fc257829003601f168201915b50505050508152602001600582018054612ff8906156a3565b80601f0160208091040260200160405190810160405280929190818152602001828054613024906156a3565b80156130715780601f1061304657610100808354040283529160200191613071565b820191906000526020600020905b81548152906001019060200180831161305457829003601f168201915b5050509183525050600691909101546001600160a01b039081166020928301528c166000908152600482526040808220815181546060958102820186018452928101838152959650929492939092849290918491908401828280156130ff57602002820191906000526020600020905b81546001600160a01b031681526001909101906020018083116130e1575b505050505081526020016001820180548060200260200160405190810160405280929190818152602001828054801561316157602002820191906000526020600020905b81546001600160a01b03168152600190910190602001808311613143575b505050505081525050905081600001518260200151836040015184606001518560a00151856000015186602001519950995099509950995099509950505050919395979092949650565b6132056040518061012001604052806060815260200160006001600160a01b031681526020016060815260200160608152602001606081526020016060815260200160001515815260200160008152602001606081525090565b6001600160a01b038316600090815260056020526040902054839060ff1661323f5760405162461bcd60e51b81526004016103dd90615646565b6001600160a01b038416600090815260036020908152604080832060020180548251818502810185019093528083529192909190849084015b8282101561364b5783829060005260206000209060090201604051806101200160405290816000820180546132ac906156a3565b80601f01602080910402602001604051908101604052809291908181526020018280546132d8906156a3565b80156133255780601f106132fa57610100808354040283529160200191613325565b820191906000526020600020905b81548152906001019060200180831161330857829003601f168201915b505050918352505060018201546001600160a01b03166020820152600282018054604090920191613355906156a3565b80601f0160208091040260200160405190810160405280929190818152602001828054613381906156a3565b80156133ce5780601f106133a3576101008083540402835291602001916133ce565b820191906000526020600020905b8154815290600101906020018083116133b157829003601f168201915b505050505081526020016003820180546133e7906156a3565b80601f0160208091040260200160405190810160405280929190818152602001828054613413906156a3565b80156134605780601f1061343557610100808354040283529160200191613460565b820191906000526020600020905b81548152906001019060200180831161344357829003601f168201915b50505050508152602001600482018054613479906156a3565b80601f01602080910402602001604051908101604052809291908181526020018280546134a5906156a3565b80156134f25780601f106134c7576101008083540402835291602001916134f2565b820191906000526020600020905b8154815290600101906020018083116134d557829003601f168201915b5050505050815260200160058201805461350b906156a3565b80601f0160208091040260200160405190810160405280929190818152602001828054613537906156a3565b80156135845780601f1061355957610100808354040283529160200191613584565b820191906000526020600020905b81548152906001019060200180831161356757829003601f168201915b5050509183525050600682015460ff1615156020820152600782015460408201526008820180546060909201916135ba906156a3565b80601f01602080910402602001604051908101604052809291908181526020018280546135e6906156a3565b80156136335780601f1061360857610100808354040283529160200191613633565b820191906000526020600020905b81548152906001019060200180831161361657829003601f168201915b50505050508152505081526020019060010190613278565b50505050905060005b815181101561134c578480519060200120828281518110613677576136776156dd565b602002602001015160000151805190602001200361377557856001600160a01b0316876001600160a01b031614806136dd57508181815181106136bc576136bc6156dd565b6020026020010151602001516001600160a01b0316876001600160a01b0316145b8061373657506001600160a01b03871660009081526006602052604090205460ff16801561373657506001600160a01b038681166000908152600760209081526040808320938b168352929052205462010000900460ff165b6137525760405162461bcd60e51b81526004016103dd90615676565b818181518110613764576137646156dd565b602002602001015193505050613787565b8061377f8161577f565b915050613654565b509392505050565b6001600160a01b038216600090815260056020526040902054829060ff166137c95760405162461bcd60e51b81526004016103dd90615646565b826001600160a01b0316846001600160a01b0316148061383957506001600160a01b03841660009081526006602052604090205460ff16801561383957506001600160a01b03838116600090815260076020908152604080832093881683529290522054640100000000900460ff165b6138555760405162461bcd60e51b81526004016103dd90615676565b6001600160a01b0383166000908152600360205260408120600201905b815481101561134c578380519060200120828281548110613895576138956156dd565b90600052602060002090600902016000016040516138b391906156f3565b6040518091039020036139355760018282815481106138d4576138d46156dd565b906000526020600020906009020160060160006101000a81548160ff021916908315150217905550846001600160a01b03167fceb0ad62277751977c5e246edbc4f5ac041d6591d4f463d1b4a2c5fdcdae6dde8560405161132b91906151f0565b8061393f8161577f565b915050613872565b6001600160a01b038216600090815260056020526040902054829060ff166139815760405162461bcd60e51b81526004016103dd90615646565b6001600160a01b038216600090815260066020526040902054829060ff166139bb5760405162461bcd60e51b81526004016103dd90615798565b6139c584846148a1565b60408051600080825260208201819052818301819052606082015290516001600160a01b0385811692908716917fcc7f0cd5708e7c282b3938e7950d37b95821195d2d1a71a5897d6512f30c65249181900360800190a350505050565b6001600160a01b038616600090815260066020526040902054869060ff16613a5c5760405162461bcd60e51b81526004016103dd90615798565b6001600160a01b038616600090815260056020526040902054869060ff16613a965760405162461bcd60e51b81526004016103dd90615646565b6040518060a0016040528060011515815260200187151581526020018615158152602001851515815260200184151581525060086000896001600160a01b03166001600160a01b0316815260200190815260200160002060008a6001600160a01b03166001600160a01b0316815260200190815260200160002060008201518160000160006101000a81548160ff02191690831515021790555060208201518160000160016101000a81548160ff02191690831515021790555060408201518160000160026101000a81548160ff02191690831515021790555060608201518160000160036101000a81548160ff02191690831515021790555060808201518160000160046101000a81548160ff021916908315150217905550905050613bbd878961490b565b876001600160a01b0316876001600160a01b03167fa980ff82f0d9a377c89efbdcce54f6d39ff21bfa6493df48b93f603b1f7fc0dc88888888604051611622949392919093151584529115156020840152151560408301521515606082015260800190565b6001600160a01b038216600090815260056020526040902054829060ff16613c5c5760405162461bcd60e51b81526004016103dd90615646565b6001600160a01b038216600090815260066020526040902054829060ff16613c965760405162461bcd60e51b81526004016103dd90615798565b6001600160a01b0380851660009081526008602090815260408083209387168352929052205460ff16613d065760405162461bcd60e51b81526020600482015260186024820152771058d8d95cdcc81c995c5d595cdd081b9bdd08199bdd5b9960421b60448201526064016103dd565b613d1084846149e3565b6001600160a01b03808516600081815260086020908152604080832094881680845294909152808220805464ffffffffff19169055517fc21bbf9d94f95c3d399c96e6e0a641c57c9d086081bf1ab101a242d646821f809190a350505050565b336001600160a01b03167fea444dd7122a2566183a7902fbb509c213d7483f822bb6b81bbf91381565c7e982604051613da991906151f0565b60405180910390a250565b6001600160a01b038716600090815260056020526040902054879060ff16613dee5760405162461bcd60e51b81526004016103dd90615646565b876001600160a01b0316896001600160a01b03161480613e5d57506001600160a01b03891660009081526006602052604090205460ff168015613e5d57506001600160a01b038881166000908152600760209081526040808320938d16835292905220546301000000900460ff165b613e795760405162461bcd60e51b81526004016103dd90615676565b6001600160a01b0388166000908152600360205260408120905b600282015481101561134c578780519060200120826002018281548110613ebc57613ebc6156dd565b9060005260206000209060090201600001604051613eda91906156f3565b60405180910390200361457c57816003016040518061012001604052808a8152602001846002018481548110613f1257613f126156dd565b6000918252602091829020600160099092020101546001600160a01b03168252600286018054929091019185908110613f4d57613f4d6156dd565b90600052602060002090600902016002018054613f69906156a3565b80601f0160208091040260200160405190810160405280929190818152602001828054613f95906156a3565b8015613fe25780601f10613fb757610100808354040283529160200191613fe2565b820191906000526020600020905b815481529060010190602001808311613fc557829003601f168201915b50505050508152602001846002018481548110614001576140016156dd565b9060005260206000209060090201600301805461401d906156a3565b80601f0160208091040260200160405190810160405280929190818152602001828054614049906156a3565b80156140965780601f1061406b57610100808354040283529160200191614096565b820191906000526020600020905b81548152906001019060200180831161407957829003601f168201915b505050505081526020018460020184815481106140b5576140b56156dd565b906000526020600020906009020160040180546140d1906156a3565b80601f01602080910402602001604051908101604052809291908181526020018280546140fd906156a3565b801561414a5780601f1061411f5761010080835404028352916020019161414a565b820191906000526020600020905b81548152906001019060200180831161412d57829003601f168201915b50505050508152602001846002018481548110614169576141696156dd565b90600052602060002090600902016005018054614185906156a3565b80601f01602080910402602001604051908101604052809291908181526020018280546141b1906156a3565b80156141fe5780601f106141d3576101008083540402835291602001916141fe565b820191906000526020600020905b8154815290600101906020018083116141e157829003601f168201915b50505050508152602001600015158152602001846002018481548110614226576142266156dd565b9060005260206000209060090201600701548152602001846002018481548110614252576142526156dd565b9060005260206000209060090201600801805461426e906156a3565b80601f016020809104026020016040519081016040528092919081815260200182805461429a906156a3565b80156142e75780601f106142bc576101008083540402835291602001916142e7565b820191906000526020600020905b8154815290600101906020018083116142ca57829003601f168201915b5050509190925250508154600181018355600092835260209092208151919260090201908190614317908261583f565b5060208201516001820180546001600160a01b0319166001600160a01b0390921691909117905560408201516002820190614352908261583f565b5060608201516003820190614367908261583f565b506080820151600482019061437c908261583f565b5060a08201516005820190614391908261583f565b5060c082015160068201805460ff191691151591909117905560e0820151600782015561010082015160088201906143c9908261583f565b5050506040518061012001604052808a81526020018c6001600160a01b03168152602001888152602001878152602001868152602001858152602001600115158152602001836002018381548110614423576144236156dd565b906000526020600020906009020160070154600161444191906157de565b81526020018981525082600201828154811061445f5761445f6156dd565b60009182526020909120825160099092020190819061447e908261583f565b5060208201516001820180546001600160a01b0319166001600160a01b03909216919091179055604082015160028201906144b9908261583f565b50606082015160038201906144ce908261583f565b50608082015160048201906144e3908261583f565b5060a082015160058201906144f8908261583f565b5060c082015160068201805460ff191691151591909117905560e082015160078201556101008201516008820190614530908261583f565b50905050896001600160a01b03167f496728c3966d39323f4b0f6f4a7a5e1f1cbbc87338b4a1d5942049e331ae28178960405161456d91906151f0565b60405180910390a2505061458e565b806145868161577f565b915050613e93565b505050505050505050565b60606000845167ffffffffffffffff8111156145b7576145b7614fb2565b60405190808252806020026020018201604052801561461057816020015b6040805160a0810182526000808252602080830182905292820181905260608201819052608082015282526000199092019101816145d55790505b50905060005b8551811015611a0d57600084614682576001600160a01b03861660009081526008602052604081208851909190899085908110614655576146556156dd565b60200260200101516001600160a01b03166001600160a01b031681526020019081526020016000206146da565b6001600160a01b038616600090815260076020526040812088519091908990859081106146b1576146b16156dd565b60200260200101516001600160a01b03166001600160a01b031681526020019081526020016000205b6040805160a08082018352925460ff808216151583526101008204811615156020840152620100008204811615158385015263010000008204811615156060840152640100000000909104161515608082015281519283019091528851909250819089908590811061474e5761474e6156dd565b60200260200101516001600160a01b03168152602001826020015115158152602001826040015115158152602001826060015115158152602001826080015115158152508383815181106147a4576147a46156dd565b60200260200101819052505080806147bb9061577f565b915050614616565b6040805160a08101825260018152861515602080830191825287151583850190815287151560608501908152871515608086019081526001600160a01b038e8116600090815260078652888120918f16815294529590922093518454935191519251955161ffff1990941690151561ff00191617610100911515919091021763ffff00001916620100009115159190910263ff0000001916176301000000931515939093029290921764ff000000001916640100000000921515929092029190911790558015614897576148978787614a2d565b6129bd87876149e3565b6001600160a01b038083166000818152600760209081526040808320948616808452948252808320805464ffffffffff199081169091559383526008825280832094835293905291909120805490911690556148fd8282614af9565b61490782826149e3565b5050565b6001600160a01b03821660009081526003602052604090206149309060010182614b3d565b614976576001600160a01b0382811660009081526003602090815260408220600190810180549182018155835291200180546001600160a01b0319169183169190911790555b6001600160a01b038116600090815260046020526040902061499b9060010183614b3d565b614907576001600160a01b0390811660009081526004602090815260408220600190810180549182018155835291200180546001600160a01b03191692909116919091179055565b6001600160a01b0382166000908152600360205260409020614a089060010182614ba6565b6001600160a01b03811660009081526004602052604090206149079060010183614ba6565b6001600160a01b0382166000908152600360205260409020614a4f9082614b3d565b614a92576001600160a01b0382811660009081526003602090815260408220805460018101825590835291200180546001600160a01b0319169183169190911790555b6001600160a01b0381166000908152600460205260409020614ab49083614b3d565b614907576001600160a01b0390811660009081526004602090815260408220805460018101825590835291200180546001600160a01b03191692909116919091179055565b6001600160a01b0382166000908152600360205260409020614b1b9082614ba6565b6001600160a01b03811660009081526004602052604090206149079083614ba6565b6000805b8354811015614b9c57826001600160a01b0316848281548110614b6657614b666156dd565b6000918252602090912001546001600160a01b031603614b8a57600191505061117f565b80614b948161577f565b915050614b41565b5060009392505050565b60005b8254811015614caf57816001600160a01b0316838281548110614bce57614bce6156dd565b6000918252602090912001546001600160a01b031603614c9d5782548390614bf89060019061591b565b81548110614c0857614c086156dd565b9060005260206000200160009054906101000a90046001600160a01b0316838281548110614c3857614c386156dd565b9060005260206000200160006101000a8154816001600160a01b0302191690836001600160a01b0316021790555082805480614c7657614c7661592e565b600082815260209020810160001990810180546001600160a01b0319169055019055505050565b80614ca78161577f565b915050614ba9565b505050565b80356001600160a01b0381168114614ccb57600080fd5b919050565b60008060408385031215614ce357600080fd5b614cec83614cb4565b9150614cfa60208401614cb4565b90509250929050565b60005b83811015614d1e578181015183820152602001614d06565b50506000910152565b60008151808452614d3f816020860160208601614d03565b601f01601f19169290920160200192915050565b600081518084526020808501945080840160005b83811015614d8c5781516001600160a01b031687529582019590820190600101614d67565b509495945050505050565b60006101208251818552614dad82860182614d27565b9150506020830151614dca60208601826001600160a01b03169052565b5060408301518482036040860152614de28282614d27565b91505060608301518482036060860152614dfc8282614d27565b91505060808301518482036080860152614e168282614d27565b91505060a083015184820360a0860152614e308282614d27565b91505060c0830151614e4660c086018215159052565b5060e083015160e08501526101008084015185830382870152614e698382614d27565b9695505050505050565b600082825180855260208086019550808260051b84010181860160005b84811015614ebe57601f19868403018952614eac838351614d97565b98840198925090830190600101614e90565b5090979650505050505050565b6000610120808352614edf8184018d614d27565b90508281036020840152614ef3818c614d27565b90508281036040840152614f07818b614d27565b90508281036060840152614f1b818a614d27565b90508281036080840152614f2f8189614d27565b905082810360a0840152614f438188614d53565b905082810360c0840152614f578187614d53565b905082810360e0840152614f6b8186614e73565b9050828103610100840152614f808185614e73565b9c9b505050505050505050505050565b600060208284031215614fa257600080fd5b614fab82614cb4565b9392505050565b634e487b7160e01b600052604160045260246000fd5b600082601f830112614fd957600080fd5b813567ffffffffffffffff80821115614ff457614ff4614fb2565b604051601f8301601f19908116603f0116810190828211818310171561501c5761501c614fb2565b8160405283815286602085880101111561503557600080fd5b836020870160208301376000602085830101528094505050505092915050565b60008060006060848603121561506a57600080fd5b61507384614cb4565b925061508160208501614cb4565b9150604084013567ffffffffffffffff81111561509d57600080fd5b6150a986828701614fc8565b9150509250925092565b602081526000614fab6020830184614d53565b80516001600160a01b031682526020808201511515908301526040808201511515908301526060808201511515908301526080908101511515910152565b600081518084526020808501945080840160005b83811015614d8c5761512b8783516150c6565b60a0969096019590820190600101615118565b6040815260006151516040830185615104565b82810360208401526151638185615104565b95945050505050565b80358015158114614ccb57600080fd5b60008060008060008060c0878903121561519557600080fd5b61519e87614cb4565b95506151ac60208801614cb4565b94506151ba6040880161516c565b93506151c86060880161516c565b92506151d66080880161516c565b91506151e460a0880161516c565b90509295509295509295565b602081526000614fab6020830184614d27565b600080600080600080600060e0888a03121561521e57600080fd5b61522788614cb4565b965061523560208901614cb4565b9550604088013567ffffffffffffffff8082111561525257600080fd5b61525e8b838c01614fc8565b965060608a013591508082111561527457600080fd5b6152808b838c01614fc8565b955060808a013591508082111561529657600080fd5b6152a28b838c01614fc8565b945060a08a01359150808211156152b857600080fd5b6152c48b838c01614fc8565b935060c08a01359150808211156152da57600080fd5b506152e78a828b01614fc8565b91505092959891949750929550565b602081526000825160e06020840152615313610100840182614d27565b90506020840151601f19808584030160408601526153318383614d27565b9250604086015191508085840301606086015261534e8383614d27565b9250606086015191508085840301608086015261536b8383614d27565b925060808601519150808584030160a08601526153888383614d27565b925060a08601519150808584030160c0860152506153a68282614d27565b91505060c084015161378760e08501826001600160a01b03169052565b602081526000614fab6020830184614e73565b600080600080600080600060e0888a0312156153f157600080fd5b6153fa88614cb4565b9650602088013567ffffffffffffffff8082111561541757600080fd5b6154238b838c01614fc8565b975060408a013591508082111561525257600080fd5b60a0810161117f82846150c6565b60e08152600061545a60e083018a614d27565b828103602084015261546c818a614d27565b905082810360408401526154808189614d27565b905082810360608401526154948188614d27565b905082810360808401526154a88187614d27565b905082810360a08401526154bc8186614d53565b905082810360c08401526154d08185614d53565b9a9950505050505050505050565b602081526000614fab6020830184614d97565b60006020828403121561550357600080fd5b813567ffffffffffffffff81111561551a57600080fd5b61552684828501614fc8565b949350505050565b600080600080600080600080610100898b03121561554b57600080fd5b61555489614cb4565b975061556260208a01614cb4565b9650604089013567ffffffffffffffff8082111561557f57600080fd5b61558b8c838d01614fc8565b975060608b01359150808211156155a157600080fd5b6155ad8c838d01614fc8565b965060808b01359150808211156155c357600080fd5b6155cf8c838d01614fc8565b955060a08b01359150808211156155e557600080fd5b6155f18c838d01614fc8565b945060c08b013591508082111561560757600080fd5b6156138c838d01614fc8565b935060e08b013591508082111561562957600080fd5b506156368b828c01614fc8565b9150509295985092959890939650565b60208082526016908201527514185d1a595b9d081b9bdd081c9959da5cdd195c995960521b604082015260600190565b602080825260139082015272556e617574686f72697a65642061636365737360681b604082015260600190565b600181811c908216806156b757607f821691505b6020821081036156d757634e487b7160e01b600052602260045260246000fd5b50919050565b634e487b7160e01b600052603260045260246000fd5b6000808354615701816156a3565b60018281168015615719576001811461572e5761575d565b60ff198416875282151583028701945061575d565b8760005260208060002060005b858110156157545781548a82015290840190820161573b565b50505082870194505b50929695505050505050565b634e487b7160e01b600052601160045260246000fd5b60006001820161579157615791615769565b5060010190565b602080825260159082015274111bd8dd1bdc881b9bdd081c9959da5cdd195c9959605a1b604082015260600190565b808202811582820484141761117f5761117f615769565b8082018082111561117f5761117f615769565b601f821115614caf57600081815260208120601f850160051c810160208610156158185750805b601f850160051c820191505b8181101561583757828155600101615824565b505050505050565b815167ffffffffffffffff81111561585957615859614fb2565b61586d8161586784546156a3565b846157f1565b602080601f8311600181146158a2576000841561588a5750858301515b600019600386901b1c1916600185901b178555615837565b600085815260208120601f198616915b828110156158d1578886015182559484019460019091019084016158b2565b50858210156158ef5787850151600019600388901b60f8161c191681555b5050505050600190811b01905550565b60008251615911818460208701614d03565b9190910192915050565b8181038181111561117f5761117f615769565b634e487b7160e01b600052603160045260246000fdfea2646970667358221220ca183e42d4c16eb4cd8686b63a985ef4a1a8a6a9b3bc2c98fa97f4e4bf1ec55c64736f6c63430008130033",
  "immutableReferences": {},
  "source": "// SPDX-License-Identifier: MIT\npragma solidity ^0.8.19;\n\ncontract StorageHealthRecords {\n    struct HealthRecord {\n        string id;\n        address creatorAddress;\n        string description;\n        string cid;\n        string recordType;\n        string createdAt;\n        bool isActive;\n        uint version;\n        string previousId;\n    }\n\n    struct User {\n        string name;\n        string birthDate;\n        string homeAddress;\n        string aesKey;\n        string passKey;\n        string role;\n        address ethAddress;\n    }\n\n    struct Patient {\n        address[] doctors;\n        address[] doctorsPending;\n        HealthRecord[] healthRecords;\n        HealthRecord[] oldHealthRecords;\n    } \n\n    struct Doctor {\n        address[] patients;\n        address[] patientsPending;\n    }\n\n    struct Access {\n        bool isRequested;\n        bool canCreate;\n        bool canRead;\n        bool canUpdate;\n        bool canDelete;\n    }\n\n    struct AccessResponse {\n        address userAddress;\n        bool canCreate;\n        bool canRead;\n        bool canUpdate;\n        bool canDelete;\n    }\n\n    address[] private registeredPatients;\n    address[] private registeredDoctors;\n\n    mapping(address => User) private users;\n    mapping(address => Patient) private patients;\n    mapping(address => Doctor) private doctors;\n    mapping(address => bool) private isPatientRegistered; \n    mapping(address => bool) private isDoctorRegistered;\n    mapping(address => mapping(address => Access)) private doctorPermissions;\n    mapping(address => mapping(address => Access)) private doctorRequestAccess;\n\n    // Events\n    event PatientRegistered(address indexed patient);\n    event DoctorRegistered(address indexed doctor);\n    event AccessRequested(address indexed patient, address indexed doctor, bool canCreate, bool canRead, bool canUpdate, bool canDelete);\n    event AccessApproved(address indexed patient, address indexed doctor, bool canCreate, bool canRead, bool canUpdate, bool canDelete);\n    event AccessDenied(address indexed patient, address indexed doctor);\n    event HealthRecordCreated(address indexed patient, string recordId);\n    event HealthRecordUpdated(address indexed patient, string recordId);\n    event HealthRecordDeleted(address indexed patient, string recordId);\n    event HealthRecordRevertDeleted(address indexed patient, string recordId);\n    event SendTest(address indexed creator, string message);\n\n    // Modifiers\n    modifier onlyRegisteredPatient(address patient) {\n        require(isPatientRegistered[patient], \"Patient not registered\");\n        _;\n    }\n\n    modifier onlyRegisteredDoctor(address doctor) {\n        require(isDoctorRegistered[doctor], \"Doctor not registered\");\n        _;\n    }\n\n    modifier onlyPatientOrDoctorWithAccess(address patient, address caller, bool requireCreate, bool requireRead, bool requireUpdate, bool requireDelete) {\n        require(\n            caller == patient || \n            (isDoctorRegistered[caller] && \n            (!requireCreate || doctorPermissions[patient][caller].canCreate) &&\n            (!requireRead || doctorPermissions[patient][caller].canRead) &&\n            (!requireUpdate || doctorPermissions[patient][caller].canUpdate) &&\n            (!requireDelete || doctorPermissions[patient][caller].canDelete)),\n            \"Unauthorized access\"\n        );\n        _;\n    }\n\n    // User Registration\n    function registerUser(\n        address senderAddress,\n        string memory name, \n        string memory birthDate, \n        string memory homeAddress,\n        string memory aesKey, \n        string memory passKey,\n        string memory role\n    ) external {\n        require(!isPatientRegistered[senderAddress] && !isDoctorRegistered[senderAddress], \"User already registered\");\n        require(keccak256(abi.encodePacked(role)) == keccak256(abi.encodePacked(\"Patient\")) || \n               keccak256(abi.encodePacked(role)) == keccak256(abi.encodePacked(\"Doctor\")), \n               \"Invalid role\");\n\n        users[senderAddress] = User({\n            name: name,\n            birthDate: birthDate,\n            homeAddress: homeAddress,\n            aesKey: aesKey,\n            passKey: passKey,\n            role: role,\n            ethAddress: senderAddress\n        });\n\n        if (keccak256(abi.encodePacked(role)) == keccak256(abi.encodePacked(\"Patient\"))) {\n            registeredPatients.push(senderAddress);\n            isPatientRegistered[senderAddress] = true;\n            emit PatientRegistered(senderAddress);\n        } else {\n            registeredDoctors.push(senderAddress);\n            isDoctorRegistered[senderAddress] = true;\n            emit DoctorRegistered(senderAddress);\n        }\n    }\n\n    // View Functions\n    function checkIsUserRegistered(address addressUser) external view returns (bool) {\n        return isPatientRegistered[addressUser] || isDoctorRegistered[addressUser];\n    }\n\n    function getUser(address userAddress) external view returns (User memory) {\n        require(isPatientRegistered[userAddress] || isDoctorRegistered[userAddress], \"User not registered\");\n        return users[userAddress];\n    }\n\n    function getAllRegisteredPatients() external view returns (address[] memory) {\n        return registeredPatients;\n    }\n\n    function getAllRegisteredDoctors() external view returns (address[] memory) {\n        return registeredDoctors;\n    }\n\n    // Patient Details\n    function getPatientDetails(address patientAddress, address senderAddress) \n        external \n        view \n        onlyRegisteredPatient(patientAddress)\n        returns (\n            string memory name, \n            string memory birthDate, \n            string memory homeAddress, \n            string memory aesKey,\n            string memory role,\n            address[] memory doctorsApproved, \n            address[] memory doctorsPending, \n            HealthRecord[] memory healthRecords,\n            HealthRecord[] memory oldHealthRecords\n        ) \n    {\n        require(\n            senderAddress == patientAddress || \n            (isDoctorRegistered[senderAddress] && doctorPermissions[patientAddress][senderAddress].canRead),\n            \"Unauthorized access\"\n        );\n        \n        User memory user = users[patientAddress];\n        Patient memory patient = patients[patientAddress];\n\n        return ( \n            user.name, \n            user.birthDate, \n            user.homeAddress, \n            user.aesKey,\n            user.role, \n            patient.doctors, \n            patient.doctorsPending, \n            patient.healthRecords,\n            patient.oldHealthRecords\n        );\n    }\n\n    // Doctor Details\n    function getDoctorDetails(address doctorAddress) \n        external \n        view \n        onlyRegisteredDoctor(doctorAddress)\n        returns (\n            string memory name, \n            string memory birthDate, \n            string memory homeAddress, \n            string memory aesKey,\n            string memory role,\n            address[] memory patientsApproved,\n            address[] memory patientsPending\n        ) \n    {\n        User memory user = users[doctorAddress];\n        Doctor memory doctor = doctors[doctorAddress];\n\n        return (\n            user.name, \n            user.birthDate, \n            user.homeAddress, \n            user.aesKey,\n            user.role,\n            doctor.patients,\n            doctor.patientsPending\n        );\n    }\n\n    // Health Record CRUD Operations\n    function createHealthRecord(\n        address senderAddress,\n        address patientAddress,\n        string memory newRecordId,\n        string memory description,\n        string memory cid,\n        string memory recordType,\n        string memory createdAt\n    ) external onlyRegisteredPatient(patientAddress) {\n        require(\n            senderAddress == patientAddress || \n            (isDoctorRegistered[senderAddress] && doctorPermissions[patientAddress][senderAddress].canCreate), \n            \"Unauthorized access\"\n        );\n\n        patients[patientAddress].healthRecords.push(HealthRecord({\n            id: newRecordId,\n            description: description,\n            cid: cid,\n            creatorAddress: senderAddress,\n            recordType: recordType,\n            createdAt: createdAt,\n            isActive: true,\n            version: 1,\n            previousId: \"\"\n        }));\n\n        emit HealthRecordCreated(patientAddress, newRecordId);\n    }\n\n    function getHealthRecord(\n        address senderAddress,\n        address patientAddress, \n        string memory recordId\n    ) external view onlyRegisteredPatient(patientAddress) returns (HealthRecord memory) {\n        HealthRecord[] memory records = patients[patientAddress].healthRecords;\n        for (uint i = 0; i < records.length; i++) {\n            if (keccak256(bytes(records[i].id)) == keccak256(bytes(recordId))) {\n                require(\n                    senderAddress == patientAddress || \n                    senderAddress == records[i].creatorAddress || \n                    (isDoctorRegistered[senderAddress] && doctorPermissions[patientAddress][senderAddress].canRead),\n                    \"Unauthorized access\"\n                );\n                return records[i];\n            }\n        }\n        revert(\"Health record not found\");\n    }\n\n    function getHealthRecordsByAddress(address senderAddress, address patientAddress) \n        external \n        view \n        onlyRegisteredPatient(patientAddress) \n        returns (HealthRecord[] memory) \n    {\n        require(isDoctorRegistered[senderAddress] || senderAddress == patientAddress, \"Unauthorized access\");\n        return patients[patientAddress].healthRecords;\n    }\n\n    function updateHealthRecord(\n        address senderAddress,\n        address patientAddress, \n        string memory newRecordId,\n        string memory recordId, \n        string memory description, \n        string memory cid,\n        string memory recordType,\n        string memory createdAt\n    ) external onlyRegisteredPatient(patientAddress) {\n        require(\n            senderAddress == patientAddress || \n            (isDoctorRegistered[senderAddress] && doctorPermissions[patientAddress][senderAddress].canUpdate), \n            \"Unauthorized access\"\n        );\n\n        Patient storage patient = patients[patientAddress];\n        for (uint i = 0; i < patient.healthRecords.length; i++) {\n            if (keccak256(bytes(patient.healthRecords[i].id)) == keccak256(bytes(recordId))) {\n                // Archive old record\n                patient.oldHealthRecords.push(HealthRecord({\n                    id: recordId,\n                    description: patient.healthRecords[i].description,\n                    cid: patient.healthRecords[i].cid,\n                    creatorAddress: patient.healthRecords[i].creatorAddress,\n                    recordType: patient.healthRecords[i].recordType,\n                    createdAt: patient.healthRecords[i].createdAt,\n                    isActive: false,\n                    version: patient.healthRecords[i].version,\n                    previousId: patient.healthRecords[i].previousId\n                }));\n\n                // Update current record\n                patient.healthRecords[i] = HealthRecord({\n                    id: newRecordId,\n                    description: description,\n                    cid: cid,\n                    creatorAddress: senderAddress,\n                    recordType: recordType,\n                    createdAt: createdAt,\n                    isActive: true,\n                    version: patient.healthRecords[i].version + 1,\n                    previousId: recordId\n                });\n\n                emit HealthRecordUpdated(patientAddress, recordId);\n                return;\n            }\n        }\n        revert(\"Health record not found\");\n    }\n\n    function deleteHealthRecord(\n        address senderAddress,\n        address patientAddress, \n        string memory recordId\n    ) external onlyRegisteredPatient(patientAddress) {\n        require(\n            senderAddress == patientAddress || \n            (isDoctorRegistered[senderAddress] && doctorPermissions[patientAddress][senderAddress].canDelete), \n            \"Unauthorized access\"\n        );\n\n        HealthRecord[] storage records = patients[patientAddress].healthRecords;\n        for (uint i = 0; i < records.length; i++) {\n            if (keccak256(bytes(records[i].id)) == keccak256(bytes(recordId))) {\n                records[i].isActive = false;\n                emit HealthRecordDeleted(patientAddress, recordId);\n                return;\n            }\n        }\n        revert(\"Health record not found\");\n    }\n\n    function revertDeleteHealthRecord(\n        address senderAddress,\n        address patientAddress, \n        string memory recordId\n    ) external onlyRegisteredPatient(patientAddress) {\n        require(\n            senderAddress == patientAddress || \n            (isDoctorRegistered[senderAddress] && doctorPermissions[patientAddress][senderAddress].canDelete), \n            \"Unauthorized access\"\n        );\n\n        HealthRecord[] storage records = patients[patientAddress].healthRecords;\n        for (uint i = 0; i < records.length; i++) {\n            if (keccak256(bytes(records[i].id)) == keccak256(bytes(recordId))) {\n                records[i].isActive = true;\n                emit HealthRecordRevertDeleted(patientAddress, recordId);\n                return;\n            }\n        }\n        revert(\"Health record not found\");\n    }\n\n    // Permission Management\n    function permissionPatientGrantDoctor(\n        address senderAddress,\n        address doctorAddress, \n        bool canCreate, \n        bool canRead, \n        bool canUpdate, \n        bool canDelete\n    ) external onlyRegisteredPatient(senderAddress) onlyRegisteredDoctor(doctorAddress) {\n        _updateDoctorPermission(senderAddress, doctorAddress, canCreate, canRead, canUpdate, canDelete, true);\n        emit AccessApproved(senderAddress, doctorAddress, canCreate, canRead, canUpdate, canDelete);\n    }\n\n    function permissionPatientRevokeDoctor(\n        address senderAddress,\n        address doctorAddress\n    ) external onlyRegisteredPatient(senderAddress) onlyRegisteredDoctor(doctorAddress) {\n        _removeDoctorAccess(senderAddress, doctorAddress);\n        emit AccessApproved(senderAddress, doctorAddress, false, false, false, false);\n    }\n\n    function requestAccessDoctor(\n        address senderAddress,\n        address patientAddress, \n        bool canCreate, \n        bool canRead, \n        bool canUpdate, \n        bool canDelete\n    ) external onlyRegisteredDoctor(senderAddress) onlyRegisteredPatient(patientAddress) {\n        doctorRequestAccess[patientAddress][senderAddress] = Access({\n            isRequested: true,\n            canCreate: canCreate,\n            canRead: canRead,\n            canUpdate: canUpdate,\n            canDelete: canDelete\n        });\n\n        _addToPendingLists(patientAddress, senderAddress);\n        emit AccessRequested(patientAddress, senderAddress, canCreate, canRead, canUpdate, canDelete);\n    }\n\n    function requestAccessApproved(\n        address senderAddress,\n        address doctorAddress\n    ) external onlyRegisteredPatient(senderAddress) onlyRegisteredDoctor(doctorAddress) {\n        Access memory request = doctorRequestAccess[senderAddress][doctorAddress];\n        require(request.isRequested, \"Access request not found\");\n\n        _updateDoctorPermission(senderAddress, doctorAddress, \n            request.canCreate, request.canRead, request.canUpdate, request.canDelete, true);\n        emit AccessApproved(senderAddress, doctorAddress, \n            request.canCreate, request.canRead, request.canUpdate, request.canDelete);\n    }\n\n    function requestAccessDenied(\n        address senderAddress,\n        address doctorAddress\n    ) external onlyRegisteredPatient(senderAddress) onlyRegisteredDoctor(doctorAddress) {\n        require(doctorRequestAccess[senderAddress][doctorAddress].isRequested, \"Access request not found\");\n        \n        _removeFromPendingLists(senderAddress, doctorAddress);\n        delete doctorRequestAccess[senderAddress][doctorAddress];\n        emit AccessDenied(senderAddress, doctorAddress);\n    }\n\n    // Helper functions for permission management\n    function _updateDoctorPermission(\n        address patientAddress,\n        address doctorAddress,\n        bool canCreate,\n        bool canRead,\n        bool canUpdate,\n        bool canDelete,\n        bool addToApproved\n    ) private {\n        doctorPermissions[patientAddress][doctorAddress] = Access({\n            isRequested: true,\n            canCreate: canCreate,\n            canRead: canRead,\n            canUpdate: canUpdate,\n            canDelete: canDelete\n        });\n\n        if (addToApproved) {\n            _addToApprovedLists(patientAddress, doctorAddress);\n        }\n        _removeFromPendingLists(patientAddress, doctorAddress);\n    }\n\n    function _removeDoctorAccess(address patientAddress, address doctorAddress) private {\n        delete doctorPermissions[patientAddress][doctorAddress];\n        delete doctorRequestAccess[patientAddress][doctorAddress];\n        _removeFromApprovedLists(patientAddress, doctorAddress);\n        _removeFromPendingLists(patientAddress, doctorAddress);\n    }\n\n    function _addToApprovedLists(address patientAddress, address doctorAddress) private {\n        if (!_addressExists(patients[patientAddress].doctors, doctorAddress)) {\n            patients[patientAddress].doctors.push(doctorAddress);\n        }\n        if (!_addressExists(doctors[doctorAddress].patients, patientAddress)) {\n            doctors[doctorAddress].patients.push(patientAddress);\n        }\n    }\n\n    function _removeFromApprovedLists(address patientAddress, address doctorAddress) private {\n        _removeAddressFromArray(patients[patientAddress].doctors, doctorAddress);\n        _removeAddressFromArray(doctors[doctorAddress].patients, patientAddress);\n    }\n\n    function _addToPendingLists(address patientAddress, address doctorAddress) private {\n        if (!_addressExists(patients[patientAddress].doctorsPending, doctorAddress)) {\n            patients[patientAddress].doctorsPending.push(doctorAddress);\n        }\n        if (!_addressExists(doctors[doctorAddress].patientsPending, patientAddress)) {\n            doctors[doctorAddress].patientsPending.push(patientAddress);\n        }\n    }\n\n    function _removeFromPendingLists(address patientAddress, address doctorAddress) private {\n        _removeAddressFromArray(patients[patientAddress].doctorsPending, doctorAddress);\n        _removeAddressFromArray(doctors[doctorAddress].patientsPending, patientAddress);\n    }\n\n    // View functions for permissions\n    function getPatientDoctors(address patientAddress) \n        external \n        view \n        onlyRegisteredPatient(patientAddress)\n        returns (AccessResponse[] memory approved, AccessResponse[] memory pending) \n    {\n        return (_getAccessResponses(patients[patientAddress].doctors, patientAddress, true),\n                _getAccessResponses(patients[patientAddress].doctorsPending, patientAddress, false));\n    }\n\n    function getDoctorPatients(address doctorAddress) \n        external \n        view \n        onlyRegisteredDoctor(doctorAddress)\n        returns (AccessResponse[] memory approved, AccessResponse[] memory pending) \n    {\n        return (_getAccessResponses(doctors[doctorAddress].patients, doctorAddress, true),\n                _getAccessResponses(doctors[doctorAddress].patientsPending, doctorAddress, false));\n    }\n\n    function getDoctorPermission(address doctorAddress, address patientAddress) \n        external \n        view \n        onlyRegisteredPatient(patientAddress) \n        onlyRegisteredDoctor(doctorAddress)\n        returns (AccessResponse memory) \n    {\n        Access memory permission = doctorPermissions[patientAddress][doctorAddress];\n        require(permission.isRequested, \"Permission not found\");\n        \n        return AccessResponse({\n            userAddress: doctorAddress,\n            canCreate: permission.canCreate,\n            canRead: permission.canRead,\n            canUpdate: permission.canUpdate,\n            canDelete: permission.canDelete\n        });\n    }\n\n    // Utility functions\n    function _getAccessResponses(address[] memory addresses, address userAddress, bool isApproved) \n        private \n        view \n        returns (AccessResponse[] memory) \n    {\n        AccessResponse[] memory responses = new AccessResponse[](addresses.length);\n        for (uint i = 0; i < addresses.length; i++) {\n            Access memory access = isApproved \n                ? doctorPermissions[userAddress][addresses[i]] \n                : doctorRequestAccess[userAddress][addresses[i]];\n            \n            responses[i] = AccessResponse({\n                userAddress: addresses[i],\n                canCreate: access.canCreate,\n                canRead: access.canRead,\n                canUpdate: access.canUpdate,\n                canDelete: access.canDelete\n            });\n        }\n        return responses;\n    }\n\n    function _addressExists(address[] storage array, address addr) private view returns (bool) {\n        for (uint i = 0; i < array.length; i++) {\n            if (array[i] == addr) {\n                return true;\n            }\n        }\n        return false;\n    }\n\n    function _removeAddressFromArray(address[] storage array, address addr) private {\n        for (uint i = 0; i < array.length; i++) {\n            if (array[i] == addr) {\n                array[i] = array[array.length - 1];\n                array.pop();\n                return;\n            }\n        }\n    }\n\n    function addressToString(address addr) public pure returns (string memory) {\n        bytes memory addressBytes = abi.encodePacked(addr);\n        bytes memory hexChars = \"0123456789abcdef\";\n        bytes memory str = new bytes(42);\n\n        str[0] = '0';\n        str[1] = 'x';\n        for (uint i = 0; i < 20; i++) {\n            str[2 + i * 2] = hexChars[uint(uint8(addressBytes[i] >> 4))];\n            str[3 + i * 2] = hexChars[uint(uint8(addressBytes[i] & 0x0f))];\n        }\n        return string(str);\n    }\n\n    // Test function\n    function testSendTransaction(string memory message) external {\n        emit SendTest(msg.sender, message);\n    }\n}",
  "sourcePath": "D:\\TA\\full\\be\\medical-10-06-2025\\contracts\\StorageHealthRecords.sol",
  "compiler": {
    "name": "solc",
    "version": "0.8.19+commit.7dd6d404.Emscripten.clang"
  },
  "schemaVersion": "3.4.16",
  "updatedAt": "2025-06-10T05:20:54.185Z",
  "devdoc": {
    "kind": "dev",
    "methods": {},
    "version": 1
  },
  "userdoc": {
    "kind": "user",
    "methods": {},
    "version": 1
  }
}