{
  "contractName": "VerificationHealthRecords",
  "abi": [
    {
      "anonymous": false,
      "inputs": [
        {
          "indexed": false,
          "internalType": "address",
          "name": "creator",
          "type": "address"
        }
      ],
      "name": "AddedHealthRecordVerification",
      "type": "event"
    },
    {
      "anonymous": false,
      "inputs": [
        {
          "indexed": false,
          "internalType": "address",
          "name": "creator",
          "type": "address"
        },
        {
          "indexed": false,
          "internalType": "string",
          "name": "message",
          "type": "string"
        }
      ],
      "name": "SendTest",
      "type": "event"
    },
    {
      "inputs": [
        {
          "internalType": "string",
          "name": "id",
          "type": "string"
        },
        {
          "internalType": "address",
          "name": "ownerAddress",
          "type": "address"
        },
        {
          "internalType": "string",
          "name": "txHash",
          "type": "string"
        }
      ],
      "name": "addVerification",
      "outputs": [],
      "stateMutability": "nonpayable",
      "type": "function"
    },
    {
      "inputs": [
        {
          "internalType": "string",
          "name": "id",
          "type": "string"
        },
        {
          "internalType": "address",
          "name": "creator",
          "type": "address"
        }
      ],
      "name": "checkIsVerification",
      "outputs": [
        {
          "internalType": "bool",
          "name": "",
          "type": "bool"
        }
      ],
      "stateMutability": "view",
      "type": "function"
    },
    {
      "inputs": [
        {
          "internalType": "string",
          "name": "message",
          "type": "string"
        }
      ],
      "name": "testSendTransaction",
      "outputs": [],
      "stateMutability": "nonpayable",
      "type": "function"
    }
  ],
  "bytecode": "0x608060405234801561001057600080fd5b50610652806100206000396000f3fe608060405234801561001057600080fd5b50600436106100415760003560e01c80632221f89b14610046578063a506b4f21461005b578063f567ac7f14610082575b600080fd5b610059610054366004610352565b610095565b005b61006e6100693660046103c6565b610216565b604051901515815260200160405180910390f35b610059610090366004610414565b610257565b336000908152600160205260409081902090516100b3908590610475565b9081526040519081900360200190205460ff16156101105760405162461bcd60e51b81526020600482015260166024820152754944207375646168207465727665726966696b61736960501b604482015260640160405180910390fd5b3360009081526020818152604080832081516060810183528781526001600160a01b038716818501529182018590528054600181018255908452919092208251600390920201908190610163908261051a565b5060208201516001820180546001600160a01b0319166001600160a01b039092169190911790556040820151600282019061019e908261051a565b50503360009081526001602081905260409182902091519092506101c3908690610475565b90815260405160209181900382018120805460ff1916931515939093179092553382527f385cdb07e69bed1f70f3d0b9a8b29228db4d5a0b125203028ccf2abe1cbf27f5910160405180910390a1505050565b6001600160a01b038116600090815260016020526040808220905161023c908590610475565b9081526040519081900360200190205460ff16905092915050565b7fea444dd7122a2566183a7902fbb509c213d7483f822bb6b81bbf91381565c7e933826040516102889291906105da565b60405180910390a150565b634e487b7160e01b600052604160045260246000fd5b600082601f8301126102ba57600080fd5b813567ffffffffffffffff808211156102d5576102d5610293565b604051601f8301601f19908116603f011681019082821181831017156102fd576102fd610293565b8160405283815286602085880101111561031657600080fd5b836020870160208301376000602085830101528094505050505092915050565b80356001600160a01b038116811461034d57600080fd5b919050565b60008060006060848603121561036757600080fd5b833567ffffffffffffffff8082111561037f57600080fd5b61038b878388016102a9565b945061039960208701610336565b935060408601359150808211156103af57600080fd5b506103bc868287016102a9565b9150509250925092565b600080604083850312156103d957600080fd5b823567ffffffffffffffff8111156103f057600080fd5b6103fc858286016102a9565b92505061040b60208401610336565b90509250929050565b60006020828403121561042657600080fd5b813567ffffffffffffffff81111561043d57600080fd5b610449848285016102a9565b949350505050565b60005b8381101561046c578181015183820152602001610454565b50506000910152565b60008251610487818460208701610451565b9190910192915050565b600181811c908216806104a557607f821691505b6020821081036104c557634e487b7160e01b600052602260045260246000fd5b50919050565b601f82111561051557600081815260208120601f850160051c810160208610156104f25750805b601f850160051c820191505b81811015610511578281556001016104fe565b5050505b505050565b815167ffffffffffffffff81111561053457610534610293565b610548816105428454610491565b846104cb565b602080601f83116001811461057d57600084156105655750858301515b600019600386901b1c1916600185901b178555610511565b600085815260208120601f198616915b828110156105ac5788860151825594840194600190910190840161058d565b50858210156105ca5787850151600019600388901b60f8161c191681555b5050505050600190811b01905550565b60018060a01b03831681526040602082015260008251806040840152610607816060850160208701610451565b601f01601f191691909101606001939250505056fea26469706673582212201f0c04ae2b63f93a2ca8ad79c95b8298b4d714805f0a26efd7854ec8a70384b664736f6c63430008130033",
  "immutableReferences": {},
  "source": "// SPDX-License-Identifier: MIT\npragma solidity ^0.8.19;\n\ncontract VerificationHealthRecords {\n    // Data untuk catatan kesehatan\n    struct HealthRecordVerification {\n        string id;       // id catatan kesehatan\n        address owner;   // address pemilik catatan kesehatan\n        string txHash;   // hash transaksi\n    }\n\n    struct SenderVerification {\n        HealthRecordVerification[] verifications;\n    }\n    \n    // Events\n    event AddedHealthRecordVerification(address creator); \n\n    // Mapping\n    mapping(address => SenderVerification) private senderVerifications;\n    mapping(address => mapping(string => bool)) private isVerification;\n\n    // Melakukan pendaftaran user\n    function addVerification(\n        string memory id, \n        address ownerAddress,\n        string memory txHash\n    ) public {\n        require(!isVerification[msg.sender][id], \"ID sudah terverifikasi\");\n        // Periksa apakah pengirim adalah creator\n\n        senderVerifications[msg.sender].verifications.push(\n            HealthRecordVerification({\n                id: id,\n                owner: ownerAddress,\n                txHash: txHash\n            })\n        );\n\n        isVerification[msg.sender][id] = true;\n\n        emit AddedHealthRecordVerification(msg.sender);\n    }\n\n    // Periksa apakah ID sudah terverifikasi\n    function checkIsVerification(string memory id, address creator) public view returns (bool) {\n        return isVerification[creator][id];\n    }\n\n    // Fungsi ini hanya untuk tujuan pengujian\n    event SendTest(address creator, string message); \n    function testSendTransaction(string memory message) public {\n        emit SendTest(msg.sender, message);\n    }\n}\n",
  "sourcePath": "D:\\TA\\full\\be\\medical-10-06-2025\\contracts\\VerificationHealthRecords.sol",
  "compiler": {
    "name": "solc",
    "version": "0.8.19+commit.7dd6d404.Emscripten.clang"
  },
  "schemaVersion": "3.4.16",
  "updatedAt": "2025-06-10T05:20:54.280Z",
  "devdoc": {
    "kind": "dev",
    "methods": {},
    "version": 1
  },
  "userdoc": {
    "kind": "user",
    "methods": {},
    "version": 1
  }
}